S01100006C656470776D626C652E7372656357
S113000058200020A50B00009D0C00009D0C000052
S113001000000000000000000000000000000000DC
S11300200000000000000000000000009D0C000023
S113003000000000000000009D0C00009D0C00006A
S11300409D0C00009D0C00009D0C00009D0C000008
S11300509D0C00009D0C00009D0C00009D0C0000F8
S11300609D0C00009D0C00009D0C00009D0C0000E8
S11300709D0C00009D0C00009D0C0000ED0A00008A
S1130080010B0000150B0000850F00009D0C000003
S11300909D0C000000000000000000009D0C00000A
S11300A09D0C00009D0C00009D0C00009D0C0000A8
S11300B00000000010B5064C2378002B07D1054B37
S11300C0002B02D0044800E000BF0123237010BDC0
S11300D00C000020000000004C110000084B10B57B
S11300E0002B03D00749084800E000BF0748036815
S11300F0002B00D110BD064B002BFBD09847F9E72D
S113010000000000100000204C1100004C11000001
S11301100000000080B500AFC046BD4680BD0000B1
S113012080B582B000AF104B1B68002B12D1EFF3E7
S113013010837B607B68002B09D172B6BFF35F8F9D
S11301400A4B00221A700A4B01221A7002E0084B73
S113015000221A70044B1B685A1C034B1A60C046D9
S1130160BD4602B080BDC04628000020000000202B
S11301702C00002080B500AF0B4B1B685A1E0A4BA5
S11301801A60094B1B68002B0AD1084B1B78DBB2A1
S1130190002B05D0064B01221A70BFF35F8F62B6A5
S11301A0C046BD4680BDC046280000202C0000206B
S11301B00000002080B582B000AF78607B688022A8
S11301C01A707B6800225A707B6801229A707B68DF
S11301D00022DA70C046BD4602B080BD80B584B04E
S11301E000AF02003960FB1D1A700C23FB181800C5
S11301F0104B98470C23FB1880221A703B681A781E
S11302000C23FB185A703B685A780C23FB189A701D
S11302103B689A780C23FB18DA700C23FA18FB1D40
S11302201B7811001800044B9847C046BD4604B023
S113023080BDC046B5010000650A000080B582B0EB
S113024000AF78607B6801225A607B6800225A7094
S11302507B6806221A707B6800221A727B6800226F
S11302605A72C046BD4602B080BD80B582B000AFB0
S113027078607B6803221A707B6800225A707B685E
S113028001229A70C046BD4602B080BD80B582B0DE
S113029000AF0200FB1D1A70034AFB1D1B7813728A
S11302A0C046BD4602B080BD0004004080B582B0A7
S11302B000AF0200FB1D1A70BB1D0A1C1A70FB1D47
S11302C01B78012B08D0022B0BD0002B0ED10B4A2C
S11302D0BB1D1B7853720BE0084ABB1D1B7893723D
S11302E006E0064ABB1D1B78D37201E0172300E029
S11302F000231800BD4602B080BDC0460004004083
S113030080B582B000AF0200FB1D1A70084AFB1DC5
S11303101B780F210B40D9B253680F2001404900CC
S11303201E2083430B435360C046BD4602B080BDCC
S11303300040004180B500AFC046044BDB6810228A
S11303401340FAD0C046BD4680BDC04600080040F8
S113035080B500AF0C4B02229A840C4B98470A4A92
S11303600B4B9B68D362084A094B5B689362064B4C
S113037000229A84054B9847034A054B1B689BB29D
S11303809384C046BD4680BD00080040350300008C
S11303903000002080B584B000AF78601A4B1B6A2F
S11303A0FB607B681B781A1C03231340DAB20D230D
S11303B0FB1803210A4010001A7803218A43111CF8
S11303C0021C0A431A707B689A780C23FB18D0012C
S11303D01A787F210A40111C021C0A431A707B6898
S11303E05A780C23FB1801210A4090011A78402105
S11303F08A43111C021C0A431A70034BFA681A62DE
S1130400C046BD4604B080BD0008004080B582B03F
S113041000AF0200FB1D1A70FB1D1B78082B3BD894
S11304209A00214BD3181B689F46204B1F4A126A1F
S113043002210A431A62002331E01C4B1B4A9269D1
S113044002210A439A6129E0184A184B1B8A9BB27D
S113045002210B439BB2138220E0144A134B9B8A64
S11304609BB202210B439BB2938217E0104B1B6893
S113047002221A430E4B1A600E4B98470EE00B4AA9
S11304800A494423CB5CDBB202210B43D9B2442397
S1130490D15403E0002302E0172300E000231800F6
S11304A0BD4602B080BDC046D81000000008004020
S11304B0300000205103000080B582B000AF3B0043
S11304C001221A7000237B6009E07B68DBB23A00EA
S11304D011001800054B98477B6801337B607B68EB
S11304E0242BF2D9C046BD4602B080BD19080000D5
S11304F080B5A0B000AF274BC222D2009A60002082
S1130500254B9847254B98477C23FB181800244B10
S113051098477C23FB1800221A707C23FB180122C5
S11305209A707C23FB1800225A707C23FB18180055
S11305301C4B984706201C4B98471C4B984700209F
S11305401B4B9847002100201A4B9847002101209B
S1130550184B984700210220164B98473B1D180062
S1130560154B98473B1D06221A703B1D01225A6009
S11305703B1D00221A723B1D00225A723B1D1900BA
S113058000200E4B984700200D4B9847C046BD46AF
S113059020B080BD0008004001030000B904000041
S11305A06B020000950300000D04000069060000C2
S11305B08D020000AD0200003D020000990600001B
S11305C0BD07000080B582B000AF02003960FB1D9A
S11305D01A70FB1D1B78012B0AD0022B0FD0002BA5
S11305E014D10E4B0D4A91693A680A439A610FE09F
S11305F00A4B0A4AD1693A680A43DA6108E0074BB0
S1130600064A116A3A680A431A6201E0172300E0B5
S113061000231800BD4602B080BDC046000400405F
S113062080B500AF024B9847C046BD4680BDC0466A
S11306302101000080B500AF024B9847C046BD467B
S113064080BDC0467501000080B500AF054B5B78E6
S1130650DBB25BB2002B01DA012300E000231800B7
S1130660BD4680BD000C004080B500AF08210020CD
S1130670074B9847074B01221A70C046054B1B785D
S1130680DBB21A0001231340F8D1C046BD4680BD39
S1130690C5050000000C004080B586B000AF020024
S11306A03960FB1D1A70FB1D1B787B61FB1D1B78D9
S11306B03B613B681B781B021A007B6913437B6117
S11306C03B685B78002B04D07B698022D202134301
S11306D07B613B685B7A002B04D07B698022120328
S11306E013437B613B685B68012B2CD93B685A68D8
S11306F03B685B68013B13401AD10023FB60022373
S1130700BB6005E0FB680133FB60BB685B00BB605A
S11307103B685A68BB689A42F4D8FB681B023A6982
S113072013433B617B698022520313437B610AE0DC
S11307303B685B681B023A6913433B617B69802217
S1130740920213437B613B681B7A002B04D07B69C4
S11307508022920313437B61C046134B9847031EC8
S1130760FBD1124B9847124AFB1D1B781370C046ED
S11307700D4B9847031EFBD10E4B3A699A60C04655
S1130780094B9847031EFBD10A4B0A4A5168802241
S1130790520211407A690A435A60074B9847C0468F
S11307A0BD4606B080BDC0464906000021060000D3
S11307B0080C0040000C00403506000080B582B0F3
S11307C000AF0200FB1D1A70C0460E4B9847031E73
S11307D0FBD10D4B98470D4AFB1D1B781370C04687
S11307E0084B9847031EFBD1094B094A52688021E4
S11307F049020A435A60074B9847C046BD4602B0B7
S113080080BDC0464906000021060000040C0040DB
S1130810000C00403506000080B584B000AF020033
S11308203960FB1D1A70FB1D1B78FB603B681B784D
S11308301B021A00FB681343FB60FB1D1B781800A6
S1130840044B9847044BFA6892B25A80C046BD469E
S113085004B080BD5D080000000C004080B584B089
S113086000AF0200FB1D1A701C4B98471C4AFB1D6D
S11308701B7813701B4B5B881B051B0FDBB2FB60E3
S1130880184A538818490B405380164A154B5B8805
S11308909BB216490B409BB25380C046114B5B88F8
S11308A09BB21A008023DB011340F7D10D4AFB6889
S11308B0DBB2191C0F230B40D9B25388081C0F213B
S11308C00140080208490B40191C031C0B435380C8
S11308D0074B9847C046BD4604B080BD21060000C2
S11308E0020C0040000C0040FFF0FFFFFFBFFFFFC1
S11308F03506000080B584B000AF0200FB1D1A70FD
S11309000F23FB18FA1D1278D2091A700E23FB1854
S1130910FA1D127852091A700D4BBB600F23FB1895
S11309201B78002B0FD10F23FB181B789B00102280
S11309309446BC446344083B1A680E23FB181B7896
S1130940DB01D31800E000231800BD4604B080BDCD
S11309500044004180B588B000AFF860B9607A60A7
S11309600023FB617B68DB7801225340DBB2002B60
S113097035D07B681B78802B0BD0FB698022520218
S11309801343FB617B681B781B061A00FB69134346
S1130990FB617B685B78002B03D07B685B78022B60
S11309A010D1FB69802292021343FB617B689B7820
S11309B0002B04D0FB698022D2021343FB61FB6845
S11309C0BA685A607B685B78012B03D07B685B78DC
S11309D0022B07D1FB69224A1340FB6102E0FB684A
S11309E0BA685A60BB681B041B0CBB61BB681B0C58
S11309F07B61BA69FB691343A022D2051A43FB68E1
S1130A009A627A69FB691343D02212061A43FB687F
S1130A109A627B68DB7801225340DBB2002B1AD048
S1130A20FA698023DB0213400AD07B689B78012B90
S1130A3003D1FB68BA689A6102E0FB68BA685A613C
S1130A407B685B78012B03D07B685B78022B02D137
S1130A50FB68BA689A60C046BD4608B080BDC0460F
S1130A60FFFFFBFF80B584B000AF02003960FB1DBF
S1130A701A70FB1D1B7818000A4B98470300FB6093
S1130A80FB1D1B781F22134001229A401300BB60F8
S1130A903A68B968FB681800034B9847C046BD46DE
S1130AA004B080BDF50800005509000080B500AF12
S1130AB0C046BD4680BD000080B500AF064B9847D8
S1130AC0064B9847064B9847064B9847064B984762
S1130AD0C046BD4680BDC046F104000015010000BB
S1130AE0AD0A0000AD0A0000AD0A000080B500AFF9
S1130AF00020024B9847C046BD4680BD290B00002C
S1130B0080B500AF0120024B9847C046BD4680BD6A
S1130B10290B000080B500AF0220024B9847C04665
S1130B20BD4680BD290B000080B586B000AF020031
S1130B30FB1D1A70FB1D1A78184B9200D3583B61A9
S1130B403B691B68DA6A3B695B6B1A403B699B6BC8
S1130B501340FB6000237B6119E0114B7A6992001A
S1130B60D358FA6813400FD03A697B699B00D318B5
S1130B7004331B683A69100098473B691B68084AAC
S1130B80796989008A58DA627B6901337B617B6900
S1130B900B2BE2DDC046BD4606B080BD4C000020F4
S1130BA0FC10000080B582B000AF2F4B7B602F4B50
S1130BB03B607A683B689A420CD007E03B681A1D98
S1130BC03A607A68111D796012681A603A68284B95
S1130BD09A42F3D3274B3B6004E03B681A1D3A600A
S1130BE000221A603A68244B9A42F6D3234B7B6066
S1130BF0234B7A68FF218A439A60224A90235B0040
S1130C000221D150204AD37803218B43191C02239B
S1130C100B43D3701C4AD3780C218B43191C082333
S1130C200B43D370194A937B30218B43191C202327
S1130C300B439373154A937B0C218B43191C082394
S1130C400B439373114A937B03218B43191C022397
S1130C500B4393730E4A536880210B4353600D4B2F
S1130C6098470D4B9847FEE74C1100000000002008
S1130C700C0000200C0000205800002000000000A0
S1130C8000ED00E0007000410050004100480041C8
S1130C9000400041911000007110000080B500AFC9
S1130CA0FEE7000080B582B000AF0200FB1D1A70A1
S1130CB0064BFA1D127811001F220A4001219140AF
S1130CC00A001A60C046BD4602B080BD00E100E0E3
S1130CD0B0B582B000AF02003960FB1D1A70FB1D75
S1130CE01B787F2B32D92F4CFB1D1B781A000F2346
S1130CF01340083B99082B4AFB1D1B7818000F234F
S1130D000340083B9B0806339B00D31804331B683D
S1130D10FA1D1278100003220240D200FF209040F6
S1130D200200D2431A403B689B01FF201840FB1D80
S1130D301B781D0003232B40DB00984003001A435B
S1130D408B1D9B00E31804331A6027E0164CFB1D2F
S1130D501B785BB29B081449FA1D127852B29208B0
S1130D60C03292005258F91D09780800032101404D
S1130D70C900FF2088400100C94311403A6892012C
S1130D80FF201040FA1D1278150003222A40D200D9
S1130D90904002000A43C0339B001A51C046BD462E
S1130DA002B0B0BD00ED00E000E100E080B584B029
S1130DB000AF0200FB1D1A700F23FB18FA1D1278F6
S1130DC0D2091A700E23FB18FA1D127852091A70F0
S1130DD00D4BBB600F23FB181B78002B0FD10F2387
S1130DE0FB181B789B0010229446BC446344083BC8
S1130DF01A680E23FB181B78DB01D31800E00023CC
S1130E001800BD4604B080BD0044004180B582B0E6
S1130E1000AF0200FB1D1A70FB1D1B781800034B6A
S1130E20984703001800BD4602B080BDAD0D000018
S1130E3080B582B000AF78607B6800221A707B684E
S1130E4001225A707B6800229A70C046BD4602B0E7
S1130E5080BD000080B584B000AF0200FB1D1A7095
S1130E60BB1D0A1C1A70FB1D1B7818000D4B9847FC
S1130E700300FB60FB1D1B781F22134001229A40D4
S1130E801300BB60BB1D1B78002B03D0FB68BA6842
S1130E909A6102E0FB68BA685A61C046BD4604B074
S1130EA080BDC0460D0E000080B582B000AF3B1D72
S1130EB01800134B98473B1D02225A703B1D012218
S1130EC01A703B1D19000C200E4B98473B1D19004E
S1130ED00E200C4B98473B1D19002B20094B9847BB
S1130EE000212B20084B984700210E20064B9847E1
S1130EF000210C20044B9847C046BD4602B080BD7B
S1130F00310E0000DD010000550E000080B500AF79
S1130F10154B154A126A802109010A431A62134BC0
S1130F20134A5A80134B144A1A80124B00221A8215
S1130F30104BFA22D2011A830E4A0E4B1B889BB225
S1130F4002210B439BB213800A4B01221A72094BF4
S1130F5010225A731220094B984702211220084B81
S1130F609847C046BD4680BD00040040000C0040C8
S1130F701B400000002C004220200000A50C0000B3
S1130F80D10C000080B500AF354B1B685A1C344BA4
S1130F901A60334B1B68FA2B02DD314B00221A60B6
S1130FA02F4B1A682F4B1B689A420CDD01210C2031
S1130FB02D4B984701210E202B4B984701212B20C4
S1130FC0294B98470BE000210C20274B9847002120
S1130FD00E20254B984700212B20234B9847204B6C
S1130FE01B68F92B38DD214B1B78002B1AD01D4BC5
S1130FF01B685A1C1B4B1A601A4B1B68F92B2BDD00
S1131000184BFA221A60194B1B785A1E9341DBB213
S113101001225340DBB21A1C01231340DAB2134BF2
S11310201A7019E00F4B1B685A1E0E4B1A600D4BB9
S11310301B680F2B10DC0B4B0F221A600B4B1B7819
S11310405A1E9341DBB201225340DBB21A1C012326
S11310501340DAB2054B1A70C046BD4680BDC04687
S11310604800002004000020550E00000800002065
S113107080B500AF034B9847034B9847034B984701
S1131080FEE7C046B90A0000A90E00000D0F0000DB
S113109070B500260C4D0D4C641BA410A64209D15A
S11310A0002600F043F80A4D0A4C641BA410A64223
S11310B005D170BDB300EB5898470136EEE7B30095
S11310C0EB5898470136F2E7381100003811000058
S11310D0381100003C11000048040000980400008E
S11310E098040000940400003A0400005A0400002C
S11310F02A0400006C0400007E04000001000000CB
S113110002000000040000000800000000100000BD
S113111000200000004000000080000000000100EA
S1131120000002000000040000000800F8B5C046FA
S1131130F8BC08BC9E467047DD000000F8B5C04608
S10F1140F8BC08BC9E467047B5000000D7
S10F114C010000001F0000000100000072
S9030BA54C
